{
  "abi": [
    {
      "anonymous": false,
      "inputs": [
        {
          "indexed": false,
          "internalType": "bytes32",
          "name": "claimedHashed",
          "type": "bytes32"
        },
        {
          "indexed": false,
          "internalType": "address",
          "name": "receiver",
          "type": "address"
        },
        {
          "indexed": false,
          "internalType": "uint256",
          "name": "amount",
          "type": "uint256"
        },
        {
          "indexed": false,
          "internalType": "uint256",
          "name": "expiryBlock",
          "type": "uint256"
        }
      ],
      "name": "CommitmentClaimed",
      "type": "event"
    },
    {
      "anonymous": false,
      "inputs": [
        {
          "indexed": false,
          "internalType": "bytes32",
          "name": "secretHashed",
          "type": "bytes32"
        },
        {
          "indexed": false,
          "internalType": "address",
          "name": "receiver",
          "type": "address"
        },
        {
          "indexed": false,
          "internalType": "uint256",
          "name": "amount",
          "type": "uint256"
        },
        {
          "indexed": false,
          "internalType": "uint256",
          "name": "expiryBlock",
          "type": "uint256"
        }
      ],
      "name": "CommitmentCreated",
      "type": "event"
    },
    {
      "anonymous": false,
      "inputs": [
        {
          "indexed": false,
          "internalType": "bytes32",
          "name": "secretHashed",
          "type": "bytes32"
        }
      ],
      "name": "CommitmentDeleted",
      "type": "event"
    },
    {
      "anonymous": false,
      "inputs": [
        {
          "indexed": false,
          "internalType": "bytes32",
          "name": "secretHashed",
          "type": "bytes32"
        }
      ],
      "name": "CommitmentWithdrawn",
      "type": "event"
    },
    {
      "inputs": [
        {
          "internalType": "bytes32",
          "name": "",
          "type": "bytes32"
        }
      ],
      "name": "commitments",
      "outputs": [
        {
          "internalType": "bytes32",
          "name": "secretHashed",
          "type": "bytes32"
        },
        {
          "internalType": "address",
          "name": "receiver",
          "type": "address"
        },
        {
          "internalType": "uint256",
          "name": "amount",
          "type": "uint256"
        },
        {
          "internalType": "uint256",
          "name": "expiryBlock",
          "type": "uint256"
        },
        {
          "internalType": "address",
          "name": "bridge",
          "type": "address"
        },
        {
          "internalType": "bool",
          "name": "isCommitment",
          "type": "bool"
        },
        {
          "internalType": "bool",
          "name": "alreadyClaimed",
          "type": "bool"
        }
      ],
      "stateMutability": "view",
      "type": "function"
    },
    {
      "inputs": [
        {
          "internalType": "bytes32",
          "name": "secretHashed",
          "type": "bytes32"
        },
        {
          "internalType": "address",
          "name": "receiver",
          "type": "address"
        },
        {
          "internalType": "uint256",
          "name": "expiryBlock",
          "type": "uint256"
        }
      ],
      "name": "createCommitment",
      "outputs": [
        {
          "internalType": "bool",
          "name": "success",
          "type": "bool"
        }
      ],
      "stateMutability": "payable",
      "type": "function"
    },
    {
      "inputs": [
        {
          "internalType": "bytes32",
          "name": "secretHashed",
          "type": "bytes32"
        }
      ],
      "name": "deleteCommitment",
      "outputs": [
        {
          "internalType": "bool",
          "name": "success",
          "type": "bool"
        }
      ],
      "stateMutability": "nonpayable",
      "type": "function"
    },
    {
      "inputs": [
        {
          "internalType": "bytes32",
          "name": "secretHashed",
          "type": "bytes32"
        }
      ],
      "name": "isCommitment",
      "outputs": [
        {
          "internalType": "bool",
          "name": "exists",
          "type": "bool"
        }
      ],
      "stateMutability": "view",
      "type": "function"
    },
    {
      "inputs": [
        {
          "internalType": "bytes",
          "name": "secret",
          "type": "bytes"
        },
        {
          "internalType": "bytes32",
          "name": "claimedHash",
          "type": "bytes32"
        }
      ],
      "name": "submitSecret",
      "outputs": [
        {
          "internalType": "bool",
          "name": "success",
          "type": "bool"
        }
      ],
      "stateMutability": "nonpayable",
      "type": "function"
    },
    {
      "inputs": [
        {
          "internalType": "bytes32",
          "name": "secretHashed",
          "type": "bytes32"
        }
      ],
      "name": "withdrawToBridge",
      "outputs": [],
      "stateMutability": "nonpayable",
      "type": "function"
    }
  ],
  "bytecode": {
    "object": "0x608060405234801561001057600080fd5b50610b0a806100206000396000f3fe6080604052600436106100555760003560e01c80633b1c33921461005a5780634a21ce371461008f578063699523f9146100af5780637f482c45146100c2578063839df945146100e457806385b214cf14610195575b600080fd5b34801561006657600080fd5b5061007a610075366004610934565b6101b5565b60405190151581526020015b60405180910390f35b34801561009b57600080fd5b5061007a6100aa3660046109e9565b610407565b61007a6100bd366004610a02565b610426565b3480156100ce57600080fd5b506100e26100dd3660046109e9565b61062c565b005b3480156100f057600080fd5b506101516100ff3660046109e9565b6000602081905290815260409020805460018201546002830154600384015460049094015492936001600160a01b0392831693919290919081169060ff600160a01b8204811691600160a81b90041687565b604080519788526001600160a01b0396871660208901528701949094526060860192909252909216608084015290151560a0830152151560c082015260e001610086565b3480156101a157600080fd5b5061007a6101b03660046109e9565b610817565b6000818152602081815260408220600181015460028201546003909201548651938701939093206001600160a01b03909116929085146102555760405162461bcd60e51b815260206004820152603060248201527f737570706c6965642073656372657420646f6573206e6f74206d61746368207460448201526f34329031b630b4b6b2b2103430b9b41760811b60648201526084015b60405180910390fd5b804311156102b05760405162461bcd60e51b815260206004820152602260248201527f746865207769746864726177616c20706572696f642068617320657870697265604482015261321760f11b606482015260840161024c565b600085815260208190526040902060040154600160a81b900460ff16156102e95760405162461bcd60e51b815260040161024c90610a46565b600080846001600160a01b03168460405160006040518083038185875af1925050503d8060008114610337576040519150601f19603f3d011682016040523d82523d6000602084013e61033c565b606091505b5091509150816103855760405162461bcd60e51b81526020600482015260146024820152732330b4b632b2103a379039b2b7321022ba3432b960611b604482015260640161024c565b60008781526020818152604091829020600401805460ff60a81b1916600160a81b17905581518981526001600160a01b03881691810191909152908101859052606081018490527f2793b03c1c260ac5e4be2e367373fca7ed9ede5bc1c5ed3c69c9d9c9d17cfcf19060800160405180910390a1506001979650505050505050565b600090815260208190526040902060040154600160a01b900460ff1690565b60008381526020819052604081206004015434903390600160a01b900460ff16156104935760405162461bcd60e51b815260206004820152601a60248201527f636f6d6d69746d656e7420616c7265616479206578697374732e000000000000604482015260640161024c565b61049c86610407565b156104a657600080fd5b60006040518060e00160405280888152602001876001600160a01b03168152602001848152602001868152602001836001600160a01b03168152602001600115158152602001600015158152509050806000808981526020019081526020016000206000820151816000015560208201518160010160006101000a8154816001600160a01b0302191690836001600160a01b03160217905550604082015181600201556060820151816003015560808201518160040160006101000a8154816001600160a01b0302191690836001600160a01b0316021790555060a08201518160040160146101000a81548160ff02191690831515021790555060c08201518160040160156101000a81548160ff0219169083151502179055509050507fbe02b785c79a967d5314bbf78dbd890b6ebe673762c9691f7bf0360ac2e67f268787348860405161061794939291909384526001600160a01b039290921660208401526040830152606082015260800190565b60405180910390a15060019695505050505050565b61063581610407565b61063e57600080fd5b6000818152602081905260409020600481015460038201546002909201546001600160a01b0390911691903383146106de5760405162461bcd60e51b815260206004820152603860248201527f6f6e6c7920746865206272696467652077686f2063726561746564207468652060448201527f636f6d6d69746d656e742063616e2077697468647261772e0000000000000000606482015260840161024c565b8143116106fd5760405162461bcd60e51b815260040161024c90610a8e565b600084815260208190526040902060040154600160a81b900460ff16156107365760405162461bcd60e51b815260040161024c90610a46565b600080846001600160a01b03168360405160006040518083038185875af1925050503d8060008114610784576040519150601f19603f3d011682016040523d82523d6000602084013e610789565b606091505b5091509150816107d25760405162461bcd60e51b81526020600482015260146024820152732330b4b632b2103a379039b2b7321022ba3432b960611b604482015260640161024c565b6107db86610817565b506040518681527fd56452725acea484c6504d1b0f85ba0b1ef6cef43a018435dbf4c17fef1986a09060200160405180910390a1505050505050565b600061082282610407565b61082b57600080fd5b60008281526020819052604090206003015443811061085c5760405162461bcd60e51b815260040161024c90610a8e565b600083815260208190526040902060040154600160a81b900460ff1615156001146108d55760405162461bcd60e51b8152602060048201526024808201527f74686520636f6d6d69746d656e742063616e207374696c6c20626520636c616960448201526336b2b21760e11b606482015260840161024c565b50506000908152602081905260408120818155600180820180546001600160a01b031916905560028201839055600382019290925560040180546001600160b01b031916905590565b634e487b7160e01b600052604160045260246000fd5b6000806040838503121561094757600080fd5b823567ffffffffffffffff8082111561095f57600080fd5b818501915085601f83011261097357600080fd5b8135818111156109855761098561091e565b604051601f8201601f19908116603f011681019083821181831017156109ad576109ad61091e565b816040528281528860208487010111156109c657600080fd5b826020860160208301376000602093820184015298969091013596505050505050565b6000602082840312156109fb57600080fd5b5035919050565b600080600060608486031215610a1757600080fd5b8335925060208401356001600160a01b0381168114610a3557600080fd5b929592945050506040919091013590565b60208082526028908201527f74686520636f6d6d69746d656e742068617320616c7265616479206265656e2060408201526731b630b4b6b2b21760c11b606082015260800190565b60208082526026908201527f746865207769746864726177616c20706572696f6420686173206e6f742065786040820152653834b932b21760d11b60608201526080019056fea264697066735822122012c90a6b9b91f1e96894001012164b41fe8348a02bdf1e69b107bb7301703f5464736f6c63430008130033",
    "linkReferences": {}
  },
  "methodIdentifiers": {
    "commitments(bytes32)": "839df945",
    "createCommitment(bytes32,address,uint256)": "699523f9",
    "deleteCommitment(bytes32)": "85b214cf",
    "isCommitment(bytes32)": "4a21ce37",
    "submitSecret(bytes,bytes32)": "3b1c3392",
    "withdrawToBridge(bytes32)": "7f482c45"
  },
  "id": 19
}